{
  "_format": "hh-sol-artifact-1",
  "contractName": "TheMemeTV",
  "sourceName": "contracts/TheMemeTV.sol",
  "abi": [
    {
      "inputs": [
        {
          "internalType": "uint256",
          "name": "_perWalletLimit",
          "type": "uint256"
        },
        {
          "internalType": "uint256",
          "name": "_perPhaseWatchSeconds",
          "type": "uint256"
        }
      ],
      "stateMutability": "nonpayable",
      "type": "constructor"
    },
    {
      "inputs": [
        {
          "internalType": "uint256",
          "name": "increasedSupply",
          "type": "uint256"
        },
        {
          "internalType": "uint256",
          "name": "cap",
          "type": "uint256"
        }
      ],
      "name": "ERC20ExceededCap",
      "type": "error"
    },
    {
      "inputs": [
        {
          "internalType": "uint256",
          "name": "cap",
          "type": "uint256"
        }
      ],
      "name": "ERC20InvalidCap",
      "type": "error"
    },
    {
      "anonymous": false,
      "inputs": [
        {
          "indexed": true,
          "internalType": "address",
          "name": "owner",
          "type": "address"
        },
        {
          "indexed": true,
          "internalType": "address",
          "name": "spender",
          "type": "address"
        },
        {
          "indexed": false,
          "internalType": "uint256",
          "name": "value",
          "type": "uint256"
        }
      ],
      "name": "Approval",
      "type": "event"
    },
    {
      "anonymous": false,
      "inputs": [
        {
          "indexed": true,
          "internalType": "address",
          "name": "previousOwner",
          "type": "address"
        },
        {
          "indexed": true,
          "internalType": "address",
          "name": "newOwner",
          "type": "address"
        }
      ],
      "name": "OwnershipTransferred",
      "type": "event"
    },
    {
      "anonymous": false,
      "inputs": [
        {
          "indexed": true,
          "internalType": "address",
          "name": "from",
          "type": "address"
        },
        {
          "indexed": true,
          "internalType": "address",
          "name": "to",
          "type": "address"
        },
        {
          "indexed": false,
          "internalType": "uint256",
          "name": "value",
          "type": "uint256"
        }
      ],
      "name": "Transfer",
      "type": "event"
    },
    {
      "inputs": [
        {
          "internalType": "address",
          "name": "owner",
          "type": "address"
        },
        {
          "internalType": "address",
          "name": "spender",
          "type": "address"
        }
      ],
      "name": "allowance",
      "outputs": [
        {
          "internalType": "uint256",
          "name": "",
          "type": "uint256"
        }
      ],
      "stateMutability": "view",
      "type": "function"
    },
    {
      "inputs": [
        {
          "internalType": "address",
          "name": "spender",
          "type": "address"
        },
        {
          "internalType": "uint256",
          "name": "amount",
          "type": "uint256"
        }
      ],
      "name": "approve",
      "outputs": [
        {
          "internalType": "bool",
          "name": "",
          "type": "bool"
        }
      ],
      "stateMutability": "nonpayable",
      "type": "function"
    },
    {
      "inputs": [
        {
          "internalType": "address",
          "name": "account",
          "type": "address"
        }
      ],
      "name": "balanceOf",
      "outputs": [
        {
          "internalType": "uint256",
          "name": "",
          "type": "uint256"
        }
      ],
      "stateMutability": "view",
      "type": "function"
    },
    {
      "inputs": [
        {
          "internalType": "uint256",
          "name": "amount",
          "type": "uint256"
        }
      ],
      "name": "burn",
      "outputs": [],
      "stateMutability": "nonpayable",
      "type": "function"
    },
    {
      "inputs": [
        {
          "internalType": "address",
          "name": "account",
          "type": "address"
        },
        {
          "internalType": "uint256",
          "name": "amount",
          "type": "uint256"
        }
      ],
      "name": "burnFrom",
      "outputs": [],
      "stateMutability": "nonpayable",
      "type": "function"
    },
    {
      "inputs": [],
      "name": "cancleLimit",
      "outputs": [],
      "stateMutability": "nonpayable",
      "type": "function"
    },
    {
      "inputs": [],
      "name": "cap",
      "outputs": [
        {
          "internalType": "uint256",
          "name": "",
          "type": "uint256"
        }
      ],
      "stateMutability": "view",
      "type": "function"
    },
    {
      "inputs": [],
      "name": "counter",
      "outputs": [
        {
          "internalType": "uint256",
          "name": "",
          "type": "uint256"
        }
      ],
      "stateMutability": "view",
      "type": "function"
    },
    {
      "inputs": [],
      "name": "decimals",
      "outputs": [
        {
          "internalType": "uint8",
          "name": "",
          "type": "uint8"
        }
      ],
      "stateMutability": "view",
      "type": "function"
    },
    {
      "inputs": [
        {
          "internalType": "address",
          "name": "spender",
          "type": "address"
        },
        {
          "internalType": "uint256",
          "name": "subtractedValue",
          "type": "uint256"
        }
      ],
      "name": "decreaseAllowance",
      "outputs": [
        {
          "internalType": "bool",
          "name": "",
          "type": "bool"
        }
      ],
      "stateMutability": "nonpayable",
      "type": "function"
    },
    {
      "inputs": [],
      "name": "dev",
      "outputs": [
        {
          "internalType": "address",
          "name": "",
          "type": "address"
        }
      ],
      "stateMutability": "view",
      "type": "function"
    },
    {
      "inputs": [
        {
          "internalType": "address",
          "name": "distributionWallet",
          "type": "address"
        },
        {
          "internalType": "uint256",
          "name": "supply",
          "type": "uint256"
        }
      ],
      "name": "distributeTokens",
      "outputs": [],
      "stateMutability": "nonpayable",
      "type": "function"
    },
    {
      "inputs": [
        {
          "internalType": "address",
          "name": "spender",
          "type": "address"
        },
        {
          "internalType": "uint256",
          "name": "addedValue",
          "type": "uint256"
        }
      ],
      "name": "increaseAllowance",
      "outputs": [
        {
          "internalType": "bool",
          "name": "",
          "type": "bool"
        }
      ],
      "stateMutability": "nonpayable",
      "type": "function"
    },
    {
      "inputs": [],
      "name": "isLimit",
      "outputs": [
        {
          "internalType": "bool",
          "name": "",
          "type": "bool"
        }
      ],
      "stateMutability": "view",
      "type": "function"
    },
    {
      "inputs": [
        {
          "internalType": "address",
          "name": "",
          "type": "address"
        }
      ],
      "name": "isWalletDurationLimitReached",
      "outputs": [
        {
          "internalType": "bool",
          "name": "",
          "type": "bool"
        }
      ],
      "stateMutability": "view",
      "type": "function"
    },
    {
      "inputs": [
        {
          "internalType": "address",
          "name": "account",
          "type": "address"
        },
        {
          "internalType": "uint256",
          "name": "userAmount",
          "type": "uint256"
        }
      ],
      "name": "mint",
      "outputs": [
        {
          "internalType": "bool",
          "name": "",
          "type": "bool"
        }
      ],
      "stateMutability": "nonpayable",
      "type": "function"
    },
    {
      "inputs": [
        {
          "internalType": "uint256[]",
          "name": "arrOfWatchTime",
          "type": "uint256[]"
        }
      ],
      "name": "mintWithWatchTime",
      "outputs": [],
      "stateMutability": "nonpayable",
      "type": "function"
    },
    {
      "inputs": [],
      "name": "name",
      "outputs": [
        {
          "internalType": "string",
          "name": "",
          "type": "string"
        }
      ],
      "stateMutability": "view",
      "type": "function"
    },
    {
      "inputs": [],
      "name": "owner",
      "outputs": [
        {
          "internalType": "address",
          "name": "",
          "type": "address"
        }
      ],
      "stateMutability": "view",
      "type": "function"
    },
    {
      "inputs": [],
      "name": "perPhaseWatchSeconds",
      "outputs": [
        {
          "internalType": "uint256",
          "name": "",
          "type": "uint256"
        }
      ],
      "stateMutability": "view",
      "type": "function"
    },
    {
      "inputs": [],
      "name": "perWalletLimit",
      "outputs": [
        {
          "internalType": "uint256",
          "name": "",
          "type": "uint256"
        }
      ],
      "stateMutability": "view",
      "type": "function"
    },
    {
      "inputs": [],
      "name": "renounceOwnership",
      "outputs": [],
      "stateMutability": "nonpayable",
      "type": "function"
    },
    {
      "inputs": [],
      "name": "symbol",
      "outputs": [
        {
          "internalType": "string",
          "name": "",
          "type": "string"
        }
      ],
      "stateMutability": "view",
      "type": "function"
    },
    {
      "inputs": [],
      "name": "totalSupply",
      "outputs": [
        {
          "internalType": "uint256",
          "name": "",
          "type": "uint256"
        }
      ],
      "stateMutability": "view",
      "type": "function"
    },
    {
      "inputs": [],
      "name": "totalWatchSeconds",
      "outputs": [
        {
          "internalType": "uint256",
          "name": "",
          "type": "uint256"
        }
      ],
      "stateMutability": "view",
      "type": "function"
    },
    {
      "inputs": [
        {
          "internalType": "address",
          "name": "to",
          "type": "address"
        },
        {
          "internalType": "uint256",
          "name": "amount",
          "type": "uint256"
        }
      ],
      "name": "transfer",
      "outputs": [
        {
          "internalType": "bool",
          "name": "",
          "type": "bool"
        }
      ],
      "stateMutability": "nonpayable",
      "type": "function"
    },
    {
      "inputs": [
        {
          "internalType": "address",
          "name": "from",
          "type": "address"
        },
        {
          "internalType": "address",
          "name": "to",
          "type": "address"
        },
        {
          "internalType": "uint256",
          "name": "amount",
          "type": "uint256"
        }
      ],
      "name": "transferFrom",
      "outputs": [
        {
          "internalType": "bool",
          "name": "",
          "type": "bool"
        }
      ],
      "stateMutability": "nonpayable",
      "type": "function"
    },
    {
      "inputs": [
        {
          "internalType": "address",
          "name": "newOwner",
          "type": "address"
        }
      ],
      "name": "transferOwnership",
      "outputs": [],
      "stateMutability": "nonpayable",
      "type": "function"
    },
    {
      "inputs": [
        {
          "internalType": "bytes32",
          "name": "videoID",
          "type": "bytes32"
        }
      ],
      "name": "uploadVideo",
      "outputs": [],
      "stateMutability": "nonpayable",
      "type": "function"
    },
    {
      "inputs": [],
      "name": "userReward",
      "outputs": [
        {
          "internalType": "uint256",
          "name": "",
          "type": "uint256"
        }
      ],
      "stateMutability": "view",
      "type": "function"
    },
    {
      "inputs": [],
      "name": "userRewardMintedSupply",
      "outputs": [
        {
          "internalType": "uint256",
          "name": "",
          "type": "uint256"
        }
      ],
      "stateMutability": "view",
      "type": "function"
    },
    {
      "inputs": [
        {
          "internalType": "bytes32",
          "name": "",
          "type": "bytes32"
        }
      ],
      "name": "videoOwner",
      "outputs": [
        {
          "internalType": "address",
          "name": "",
          "type": "address"
        }
      ],
      "stateMutability": "view",
      "type": "function"
    },
    {
      "inputs": [
        {
          "internalType": "address",
          "name": "",
          "type": "address"
        }
      ],
      "name": "walletWatchDuration",
      "outputs": [
        {
          "internalType": "uint256",
          "name": "",
          "type": "uint256"
        }
      ],
      "stateMutability": "view",
      "type": "function"
    }
  ],
  "bytecode": "0x60a06040526001600060146101000a81548160ff0219169083151502179055503480156200002c57600080fd5b506040516200416338038062004163833981810160405281019062000052919062000681565b620000626200021260201b60201c565b600a62000070919062000858565b64e8d4a51015620000829190620008a9565b6040518060400160405280600b81526020017f546865204d656d652054560000000000000000000000000000000000000000008152506040518060400160405280600681526020017f4d454d45545600000000000000000000000000000000000000000000000000008152508160049081620000ff919062000b64565b50806005908162000111919062000b64565b50336000806101000a81548173ffffffffffffffffffffffffffffffffffffffff021916908373ffffffffffffffffffffffffffffffffffffffff160217905550505062000174620001686200021b60201b60201c565b6200022360201b60201c565b60008103620001bd5760006040517f392e1e27000000000000000000000000000000000000000000000000000000008152600401620001b4919062000c8e565b60405180910390fd5b806080818152505050620001ec620001da6200021b60201b60201c565b64037e11d600620002e960201b60201c565b506721e19e0c9bab240060088190555081600a8190555080600c81905550505062000ee2565b60006012905090565b600033905090565b6000600660009054906101000a900473ffffffffffffffffffffffffffffffffffffffff16905081600660006101000a81548173ffffffffffffffffffffffffffffffffffffffff021916908373ffffffffffffffffffffffffffffffffffffffff1602179055508173ffffffffffffffffffffffffffffffffffffffff168173ffffffffffffffffffffffffffffffffffffffff167f8be0079c531659141344cd1fd0a4f28419497f9722a3daafe3b4186f6b6457e060405160405180910390a35050565b6000620002fb620003fa60201b60201c565b612710611f41620003116200048b60201b60201c565b6200031d9190620008a9565b62000329919062000cda565b620003396200021260201b60201c565b600a62000347919062000858565b83620003549190620008a9565b620003646200049560201b60201c565b62000370919062000d12565b1115620003b4576040517f08c379a0000000000000000000000000000000000000000000000000000000008152600401620003ab9062000dae565b60405180910390fd5b620003f083620003c96200021260201b60201c565b600a620003d7919062000858565b84620003e49190620008a9565b6200049f60201b60201c565b6001905092915050565b6200040a6200021b60201b60201c565b73ffffffffffffffffffffffffffffffffffffffff16620004306200060d60201b60201c565b73ffffffffffffffffffffffffffffffffffffffff161462000489576040517f08c379a0000000000000000000000000000000000000000000000000000000008152600401620004809062000e20565b60405180910390fd5b565b6000608051905090565b6000600354905090565b600073ffffffffffffffffffffffffffffffffffffffff168273ffffffffffffffffffffffffffffffffffffffff160362000511576040517f08c379a0000000000000000000000000000000000000000000000000000000008152600401620005089062000e92565b60405180910390fd5b62000525600083836200063760201b60201c565b806003600082825462000539919062000d12565b9250508190555080600160008473ffffffffffffffffffffffffffffffffffffffff1673ffffffffffffffffffffffffffffffffffffffff168152602001908152602001600020600082825401925050819055508173ffffffffffffffffffffffffffffffffffffffff16600073ffffffffffffffffffffffffffffffffffffffff167fddf252ad1be2c89b69c2b068fc378daa952ba7f163c4a11628f55a4df523b3ef83604051620005ed919062000ec5565b60405180910390a362000609600083836200063c60201b60201c565b5050565b6000600660009054906101000a900473ffffffffffffffffffffffffffffffffffffffff16905090565b505050565b505050565b600080fd5b6000819050919050565b6200065b8162000646565b81146200066757600080fd5b50565b6000815190506200067b8162000650565b92915050565b600080604083850312156200069b576200069a62000641565b5b6000620006ab858286016200066a565b9250506020620006be858286016200066a565b9150509250929050565b7f4e487b7100000000000000000000000000000000000000000000000000000000600052601160045260246000fd5b60008160011c9050919050565b6000808291508390505b600185111562000756578086048111156200072e576200072d620006c8565b5b60018516156200073e5780820291505b80810290506200074e85620006f7565b94506200070e565b94509492505050565b60008262000771576001905062000844565b8162000781576000905062000844565b81600181146200079a5760028114620007a557620007db565b600191505062000844565b60ff841115620007ba57620007b9620006c8565b5b8360020a915084821115620007d457620007d3620006c8565b5b5062000844565b5060208310610133831016604e8410600b8410161715620008155782820a9050838111156200080f576200080e620006c8565b5b62000844565b62000824848484600162000704565b925090508184048111156200083e576200083d620006c8565b5b81810290505b9392505050565b600060ff82169050919050565b6000620008658262000646565b915062000872836200084b565b9250620008a17fffffffffffffffffffffffffffffffffffffffffffffffffffffffffffffffff84846200075f565b905092915050565b6000620008b68262000646565b9150620008c38362000646565b9250828202620008d38162000646565b91508282048414831517620008ed57620008ec620006c8565b5b5092915050565b600081519050919050565b7f4e487b7100000000000000000000000000000000000000000000000000000000600052604160045260246000fd5b7f4e487b7100000000000000000000000000000000000000000000000000000000600052602260045260246000fd5b600060028204905060018216806200097657607f821691505b6020821081036200098c576200098b6200092e565b5b50919050565b60008190508160005260206000209050919050565b60006020601f8301049050919050565b600082821b905092915050565b600060088302620009f67fffffffffffffffffffffffffffffffffffffffffffffffffffffffffffffffff82620009b7565b62000a028683620009b7565b95508019841693508086168417925050509392505050565b6000819050919050565b600062000a4562000a3f62000a398462000646565b62000a1a565b62000646565b9050919050565b6000819050919050565b62000a618362000a24565b62000a7962000a708262000a4c565b848454620009c4565b825550505050565b600090565b62000a9062000a81565b62000a9d81848462000a56565b505050565b5b8181101562000ac55762000ab960008262000a86565b60018101905062000aa3565b5050565b601f82111562000b145762000ade8162000992565b62000ae984620009a7565b8101602085101562000af9578190505b62000b1162000b0885620009a7565b83018262000aa2565b50505b505050565b600082821c905092915050565b600062000b396000198460080262000b19565b1980831691505092915050565b600062000b54838362000b26565b9150826002028217905092915050565b62000b6f82620008f4565b67ffffffffffffffff81111562000b8b5762000b8a620008ff565b5b62000b9782546200095d565b62000ba482828562000ac9565b600060209050601f83116001811462000bdc576000841562000bc7578287015190505b62000bd3858262000b46565b86555062000c43565b601f19841662000bec8662000992565b60005b8281101562000c165784890151825560018201915060208501945060208101905062000bef565b8683101562000c36578489015162000c32601f89168262000b26565b8355505b6001600288020188555050505b505050505050565b6000819050919050565b600062000c7662000c7062000c6a8462000c4b565b62000a1a565b62000646565b9050919050565b62000c888162000c55565b82525050565b600060208201905062000ca5600083018462000c7d565b92915050565b7f4e487b7100000000000000000000000000000000000000000000000000000000600052601260045260246000fd5b600062000ce78262000646565b915062000cf48362000646565b92508262000d075762000d0662000cab565b5b828204905092915050565b600062000d1f8262000646565b915062000d2c8362000646565b925082820190508082111562000d475762000d46620006c8565b5b92915050565b600082825260208201905092915050565b7f45524332304361707065643a2063617020657863656564656400000000000000600082015250565b600062000d9660198362000d4d565b915062000da38262000d5e565b602082019050919050565b6000602082019050818103600083015262000dc98162000d87565b9050919050565b7f4f776e61626c653a2063616c6c6572206973206e6f7420746865206f776e6572600082015250565b600062000e0860208362000d4d565b915062000e158262000dd0565b602082019050919050565b6000602082019050818103600083015262000e3b8162000df9565b9050919050565b7f45524332303a206d696e7420746f20746865207a65726f206164647265737300600082015250565b600062000e7a601f8362000d4d565b915062000e878262000e42565b602082019050919050565b6000602082019050818103600083015262000ead8162000e6b565b9050919050565b62000ebf8162000646565b82525050565b600060208201905062000edc600083018462000eb4565b92915050565b60805161326562000efe600039600061109701526132656000f3fe608060405234801561001057600080fd5b50600436106101fb5760003560e01c806340c10f191161011a57806395d89b41116100ad578063c2bac0bc1161007c578063c2bac0bc146105cc578063dd62ed3e146105e8578063de42c69e14610618578063e5a6c28f14610636578063f2fde38b14610654576101fb565b806395d89b4114610530578063a457c2d71461054e578063a9059cbb1461057e578063ac883715146105ae576101fb565b8063715018a6116100e9578063715018a6146104ce57806379cc6790146104d85780638da5cb5b146104f457806391cca3db14610512576101fb565b806340c10f191461043457806342966c681461046457806361bc221a1461048057806370a082311461049e576101fb565b806323b872dd11610192578063313ce56711610161578063313ce567146103985780633298bcf7146103b6578063355274ea146103e65780633950935114610404576101fb565b806323b872dd14610310578063267de8ee1461034057806327578055146103705780632f6850221461038e576101fb565b8063158a4988116101ce578063158a49881461029c57806316f04548146102b857806318160ddd146102d45780631ea19688146102f2576101fb565b806306fdde0314610200578063095ea7b31461021e5780630d3ace8b1461024e5780631558015d1461027e575b600080fd5b610208610670565b6040516102159190612095565b60405180910390f35b6102386004803603810190610233919061215f565b610702565b60405161024591906121ba565b60405180910390f35b6102686004803603810190610263919061220b565b610725565b6040516102759190612247565b60405180910390f35b610286610758565b6040516102939190612271565b60405180910390f35b6102b660048036038101906102b1919061215f565b61075e565b005b6102d260048036038101906102cd91906123d4565b6107ec565b005b6102dc610f8c565b6040516102e99190612271565b60405180910390f35b6102fa610f96565b6040516103079190612271565b60405180910390f35b61032a6004803603810190610325919061241d565b610f9c565b60405161033791906121ba565b60405180910390f35b61035a60048036038101906103559190612470565b610fcb565b60405161036791906121ba565b60405180910390f35b610378610feb565b60405161038591906121ba565b60405180910390f35b610396610ffe565b005b6103a0611072565b6040516103ad91906124b9565b60405180910390f35b6103d060048036038101906103cb9190612470565b61107b565b6040516103dd9190612271565b60405180910390f35b6103ee611093565b6040516103fb9190612271565b60405180910390f35b61041e6004803603810190610419919061215f565b6110bb565b60405161042b91906121ba565b60405180910390f35b61044e6004803603810190610449919061215f565b6110f2565b60405161045b91906121ba565b60405180910390f35b61047e600480360381019061047991906124d4565b6111c2565b005b6104886111d6565b6040516104959190612271565b60405180910390f35b6104b860048036038101906104b39190612470565b6111dc565b6040516104c59190612271565b60405180910390f35b6104d6611225565b005b6104f260048036038101906104ed919061215f565b611239565b005b6104fc611259565b6040516105099190612247565b60405180910390f35b61051a611283565b6040516105279190612247565b60405180910390f35b6105386112a7565b6040516105459190612095565b60405180910390f35b6105686004803603810190610563919061215f565b611339565b60405161057591906121ba565b60405180910390f35b6105986004803603810190610593919061215f565b6113b0565b6040516105a591906121ba565b60405180910390f35b6105b66113d3565b6040516105c39190612271565b60405180910390f35b6105e660048036038101906105e1919061220b565b6113d9565b005b61060260048036038101906105fd9190612501565b61142e565b60405161060f9190612271565b60405180910390f35b6106206114b5565b60405161062d9190612271565b60405180910390f35b61063e6114bb565b60405161064b9190612271565b60405180910390f35b61066e60048036038101906106699190612470565b6114c1565b005b60606004805461067f90612570565b80601f01602080910402602001604051908101604052809291908181526020018280546106ab90612570565b80156106f85780601f106106cd576101008083540402835291602001916106f8565b820191906000526020600020905b8154815290600101906020018083116106db57829003601f168201915b5050505050905090565b60008061070d611544565b905061071a81858561154c565b600191505092915050565b600f6020528060005260406000206000915054906101000a900473ffffffffffffffffffffffffffffffffffffffff1681565b60075481565b610766611715565b610776610771611544565b6111dc565b8111156107b8576040517f08c379a00000000000000000000000000000000000000000000000000000000081526004016107af906125ed565b60405180910390fd5b6107e86107c3611544565b836107cc611072565b600a6107d8919061276f565b846107e391906127ba565b611793565b5050565b600d60006107f8611544565b73ffffffffffffffffffffffffffffffffffffffff1673ffffffffffffffffffffffffffffffffffffffff16815260200190815260200160002060009054906101000a900460ff1615610880576040517f08c379a00000000000000000000000000000000000000000000000000000000081526004016108779061286e565b60405180910390fd5b6000805b82518110156108c8578281815181106108a05761089f61288e565b5b6020026020010151826108b391906128bd565b915080806108c0906128f1565b915050610884565b50600a54811015801561092157506000600e60006108e4611544565b73ffffffffffffffffffffffffffffffffffffffff1673ffffffffffffffffffffffffffffffffffffffff16815260200190815260200160002054145b156109da57600a5490506001600d6000610939611544565b73ffffffffffffffffffffffffffffffffffffffff1673ffffffffffffffffffffffffffffffffffffffff16815260200190815260200160002060006101000a81548160ff02191690831515021790555080600e6000610997611544565b73ffffffffffffffffffffffffffffffffffffffff1673ffffffffffffffffffffffffffffffffffffffff16815260200190815260200160002081905550610dbb565b600a548110158015610a3357506000600e60006109f5611544565b73ffffffffffffffffffffffffffffffffffffffff1673ffffffffffffffffffffffffffffffffffffffff1681526020019081526020016000205414155b15610b3d57600e6000610a44611544565b73ffffffffffffffffffffffffffffffffffffffff1673ffffffffffffffffffffffffffffffffffffffff16815260200190815260200160002054600a54610a8c9190612939565b90506001600d6000610a9c611544565b73ffffffffffffffffffffffffffffffffffffffff1673ffffffffffffffffffffffffffffffffffffffff16815260200190815260200160002060006101000a81548160ff02191690831515021790555080600e6000610afa611544565b73ffffffffffffffffffffffffffffffffffffffff1673ffffffffffffffffffffffffffffffffffffffff16815260200190815260200160002081905550610dba565b600a5481108015610b9457506000600e6000610b57611544565b73ffffffffffffffffffffffffffffffffffffffff1673ffffffffffffffffffffffffffffffffffffffff16815260200190815260200160002054145b15610be95780600e6000610ba6611544565b73ffffffffffffffffffffffffffffffffffffffff1673ffffffffffffffffffffffffffffffffffffffff16815260200190815260200160002081905550610db9565b600a5481600e6000610bf9611544565b73ffffffffffffffffffffffffffffffffffffffff1673ffffffffffffffffffffffffffffffffffffffff16815260200190815260200160002054610c3e91906128bd565b10610d5a57600e6000610c4f611544565b73ffffffffffffffffffffffffffffffffffffffff1673ffffffffffffffffffffffffffffffffffffffff16815260200190815260200160002054600a54610c979190612939565b90506001600d6000610ca7611544565b73ffffffffffffffffffffffffffffffffffffffff1673ffffffffffffffffffffffffffffffffffffffff16815260200190815260200160002060006101000a81548160ff02191690831515021790555080600e6000610d05611544565b73ffffffffffffffffffffffffffffffffffffffff1673ffffffffffffffffffffffffffffffffffffffff1681526020019081526020016000206000828254610d4e91906128bd565b92505081905550610db8565b80600e6000610d67611544565b73ffffffffffffffffffffffffffffffffffffffff1673ffffffffffffffffffffffffffffffffffffffff1681526020019081526020016000206000828254610db091906128bd565b925050819055505b5b5b5b6000600c5482600954610dce91906128bd565b10610ec057600c5482600954610de491906128bd565b03610e1f5760085482610df791906127ba565b90508160096000828254610e0b91906128bd565b92505081905550610e1a611a91565b610ebb565b6000600c5483600954610e3291906128bd565b610e3c9190612939565b90506008548184610e4d9190612939565b610e5791906127ba565b91508083610e659190612939565b60096000828254610e7691906128bd565b92505081905550610e85611a91565b60085481610e9391906127ba565b82610e9e91906128bd565b91508060096000828254610eb291906128bd565b92505081905550505b610eea565b60085482610ece91906127ba565b90508160096000828254610ee291906128bd565b925050819055505b610ef2611072565b600a610efe919061276f565b6404a79b4500610f0e91906127ba565b81600754610f1c91906128bd565b1115610f5d576040517f08c379a0000000000000000000000000000000000000000000000000000000008152600401610f54906129df565b60405180910390fd5b610f6e610f68611544565b82611b83565b8060076000828254610f8091906128bd565b92505081905550505050565b6000600354905090565b60095481565b600080610fa7611544565b9050610fb4858285611cda565b610fbf858585611793565b60019150509392505050565b600d6020528060005260406000206000915054906101000a900460ff1681565b600060149054906101000a900460ff1681565b60008054906101000a900473ffffffffffffffffffffffffffffffffffffffff1673ffffffffffffffffffffffffffffffffffffffff163373ffffffffffffffffffffffffffffffffffffffff161461105657600080fd5b60008060146101000a81548160ff021916908315150217905550565b60006012905090565b600e6020528060005260406000206000915090505481565b60007f0000000000000000000000000000000000000000000000000000000000000000905090565b6000806110c6611544565b90506110e78185856110d8858961142e565b6110e291906128bd565b61154c565b600191505092915050565b60006110fc611715565b612710611f4161110a611093565b61111491906127ba565b61111e9190612a2e565b611126611072565b600a611132919061276f565b8361113d91906127ba565b611145610f8c565b61114f91906128bd565b1115611190576040517f08c379a000000000000000000000000000000000000000000000000000000000815260040161118790612aab565b60405180910390fd5b6111b88361119c611072565b600a6111a8919061276f565b846111b391906127ba565b611b83565b6001905092915050565b6111d36111cd611544565b82611d66565b50565b600b5481565b6000600160008373ffffffffffffffffffffffffffffffffffffffff1673ffffffffffffffffffffffffffffffffffffffff168152602001908152602001600020549050919050565b61122d611715565b6112376000611f35565b565b61124b82611245611544565b83611cda565b6112558282611d66565b5050565b6000600660009054906101000a900473ffffffffffffffffffffffffffffffffffffffff16905090565b60008054906101000a900473ffffffffffffffffffffffffffffffffffffffff1681565b6060600580546112b690612570565b80601f01602080910402602001604051908101604052809291908181526020018280546112e290612570565b801561132f5780601f106113045761010080835404028352916020019161132f565b820191906000526020600020905b81548152906001019060200180831161131257829003601f168201915b5050505050905090565b600080611344611544565b90506000611352828661142e565b905083811015611397576040517f08c379a000000000000000000000000000000000000000000000000000000000815260040161138e90612b3d565b60405180910390fd5b6113a4828686840361154c565b60019250505092915050565b6000806113bb611544565b90506113c8818585611793565b600191505092915050565b600c5481565b33600f600083815260200190815260200160002060006101000a81548173ffffffffffffffffffffffffffffffffffffffff021916908373ffffffffffffffffffffffffffffffffffffffff16021790555050565b6000600260008473ffffffffffffffffffffffffffffffffffffffff1673ffffffffffffffffffffffffffffffffffffffff16815260200190815260200160002060008373ffffffffffffffffffffffffffffffffffffffff1673ffffffffffffffffffffffffffffffffffffffff16815260200190815260200160002054905092915050565b600a5481565b60085481565b6114c9611715565b600073ffffffffffffffffffffffffffffffffffffffff168173ffffffffffffffffffffffffffffffffffffffff1603611538576040517f08c379a000000000000000000000000000000000000000000000000000000000815260040161152f90612bcf565b60405180910390fd5b61154181611f35565b50565b600033905090565b600073ffffffffffffffffffffffffffffffffffffffff168373ffffffffffffffffffffffffffffffffffffffff16036115bb576040517f08c379a00000000000000000000000000000000000000000000000000000000081526004016115b290612c61565b60405180910390fd5b600073ffffffffffffffffffffffffffffffffffffffff168273ffffffffffffffffffffffffffffffffffffffff160361162a576040517f08c379a000000000000000000000000000000000000000000000000000000000815260040161162190612cf3565b60405180910390fd5b80600260008573ffffffffffffffffffffffffffffffffffffffff1673ffffffffffffffffffffffffffffffffffffffff16815260200190815260200160002060008473ffffffffffffffffffffffffffffffffffffffff1673ffffffffffffffffffffffffffffffffffffffff168152602001908152602001600020819055508173ffffffffffffffffffffffffffffffffffffffff168373ffffffffffffffffffffffffffffffffffffffff167f8c5be1e5ebec7d5bd14f71427d1e84f3dd0314c0f7b2291e5b200ac8c7c3b925836040516117089190612271565b60405180910390a3505050565b61171d611544565b73ffffffffffffffffffffffffffffffffffffffff1661173b611259565b73ffffffffffffffffffffffffffffffffffffffff1614611791576040517f08c379a000000000000000000000000000000000000000000000000000000000815260040161178890612d5f565b60405180910390fd5b565b600073ffffffffffffffffffffffffffffffffffffffff168373ffffffffffffffffffffffffffffffffffffffff1603611802576040517f08c379a00000000000000000000000000000000000000000000000000000000081526004016117f990612df1565b60405180910390fd5b600073ffffffffffffffffffffffffffffffffffffffff168273ffffffffffffffffffffffffffffffffffffffff1603611871576040517f08c379a000000000000000000000000000000000000000000000000000000000815260040161186890612e83565b60405180910390fd5b600060149054906101000a900460ff1680156118d9575060008054906101000a900473ffffffffffffffffffffffffffffffffffffffff1673ffffffffffffffffffffffffffffffffffffffff168373ffffffffffffffffffffffffffffffffffffffff1614155b156118f657692a5a058fc295ed0000008111156118f557600080fd5b5b611901838383611ffb565b6000600160008573ffffffffffffffffffffffffffffffffffffffff1673ffffffffffffffffffffffffffffffffffffffff16815260200190815260200160002054905081811015611988576040517f08c379a000000000000000000000000000000000000000000000000000000000815260040161197f90612f15565b60405180910390fd5b818103600160008673ffffffffffffffffffffffffffffffffffffffff1673ffffffffffffffffffffffffffffffffffffffff1681526020019081526020016000208190555081600160008573ffffffffffffffffffffffffffffffffffffffff1673ffffffffffffffffffffffffffffffffffffffff168152602001908152602001600020600082825401925050819055508273ffffffffffffffffffffffffffffffffffffffff168473ffffffffffffffffffffffffffffffffffffffff167fddf252ad1be2c89b69c2b068fc378daa952ba7f163c4a11628f55a4df523b3ef84604051611a789190612271565b60405180910390a3611a8b848484612000565b50505050565b600c546009541015611ad8576040517f08c379a0000000000000000000000000000000000000000000000000000000008152600401611acf90612fa7565b60405180910390fd5b6015600b5410611b1d576040517f08c379a0000000000000000000000000000000000000000000000000000000008152600401611b1490613013565b60405180910390fd5b600b6000815480929190611b30906128f1565b91905055506000600981905550600a600b5411611b6657600260086000828254611b5a91906127ba565b92505081905550611b81565b600260086000828254611b799190612a2e565b925050819055505b565b600073ffffffffffffffffffffffffffffffffffffffff168273ffffffffffffffffffffffffffffffffffffffff1603611bf2576040517f08c379a0000000000000000000000000000000000000000000000000000000008152600401611be99061307f565b60405180910390fd5b611bfe60008383611ffb565b8060036000828254611c1091906128bd565b9250508190555080600160008473ffffffffffffffffffffffffffffffffffffffff1673ffffffffffffffffffffffffffffffffffffffff168152602001908152602001600020600082825401925050819055508173ffffffffffffffffffffffffffffffffffffffff16600073ffffffffffffffffffffffffffffffffffffffff167fddf252ad1be2c89b69c2b068fc378daa952ba7f163c4a11628f55a4df523b3ef83604051611cc29190612271565b60405180910390a3611cd660008383612000565b5050565b6000611ce6848461142e565b90507fffffffffffffffffffffffffffffffffffffffffffffffffffffffffffffffff8114611d605781811015611d52576040517f08c379a0000000000000000000000000000000000000000000000000000000008152600401611d49906130eb565b60405180910390fd5b611d5f848484840361154c565b5b50505050565b600073ffffffffffffffffffffffffffffffffffffffff168273ffffffffffffffffffffffffffffffffffffffff1603611dd5576040517f08c379a0000000000000000000000000000000000000000000000000000000008152600401611dcc9061317d565b60405180910390fd5b611de182600083611ffb565b6000600160008473ffffffffffffffffffffffffffffffffffffffff1673ffffffffffffffffffffffffffffffffffffffff16815260200190815260200160002054905081811015611e68576040517f08c379a0000000000000000000000000000000000000000000000000000000008152600401611e5f9061320f565b60405180910390fd5b818103600160008573ffffffffffffffffffffffffffffffffffffffff1673ffffffffffffffffffffffffffffffffffffffff1681526020019081526020016000208190555081600360008282540392505081905550600073ffffffffffffffffffffffffffffffffffffffff168373ffffffffffffffffffffffffffffffffffffffff167fddf252ad1be2c89b69c2b068fc378daa952ba7f163c4a11628f55a4df523b3ef84604051611f1c9190612271565b60405180910390a3611f3083600084612000565b505050565b6000600660009054906101000a900473ffffffffffffffffffffffffffffffffffffffff16905081600660006101000a81548173ffffffffffffffffffffffffffffffffffffffff021916908373ffffffffffffffffffffffffffffffffffffffff1602179055508173ffffffffffffffffffffffffffffffffffffffff168173ffffffffffffffffffffffffffffffffffffffff167f8be0079c531659141344cd1fd0a4f28419497f9722a3daafe3b4186f6b6457e060405160405180910390a35050565b505050565b505050565b600081519050919050565b600082825260208201905092915050565b60005b8381101561203f578082015181840152602081019050612024565b60008484015250505050565b6000601f19601f8301169050919050565b600061206782612005565b6120718185612010565b9350612081818560208601612021565b61208a8161204b565b840191505092915050565b600060208201905081810360008301526120af818461205c565b905092915050565b6000604051905090565b600080fd5b600080fd5b600073ffffffffffffffffffffffffffffffffffffffff82169050919050565b60006120f6826120cb565b9050919050565b612106816120eb565b811461211157600080fd5b50565b600081359050612123816120fd565b92915050565b6000819050919050565b61213c81612129565b811461214757600080fd5b50565b60008135905061215981612133565b92915050565b60008060408385031215612176576121756120c1565b5b600061218485828601612114565b92505060206121958582860161214a565b9150509250929050565b60008115159050919050565b6121b48161219f565b82525050565b60006020820190506121cf60008301846121ab565b92915050565b6000819050919050565b6121e8816121d5565b81146121f357600080fd5b50565b600081359050612205816121df565b92915050565b600060208284031215612221576122206120c1565b5b600061222f848285016121f6565b91505092915050565b612241816120eb565b82525050565b600060208201905061225c6000830184612238565b92915050565b61226b81612129565b82525050565b60006020820190506122866000830184612262565b92915050565b600080fd5b7f4e487b7100000000000000000000000000000000000000000000000000000000600052604160045260246000fd5b6122c98261204b565b810181811067ffffffffffffffff821117156122e8576122e7612291565b5b80604052505050565b60006122fb6120b7565b905061230782826122c0565b919050565b600067ffffffffffffffff82111561232757612326612291565b5b602082029050602081019050919050565b600080fd5b600061235061234b8461230c565b6122f1565b9050808382526020820190506020840283018581111561237357612372612338565b5b835b8181101561239c5780612388888261214a565b845260208401935050602081019050612375565b5050509392505050565b600082601f8301126123bb576123ba61228c565b5b81356123cb84826020860161233d565b91505092915050565b6000602082840312156123ea576123e96120c1565b5b600082013567ffffffffffffffff811115612408576124076120c6565b5b612414848285016123a6565b91505092915050565b600080600060608486031215612436576124356120c1565b5b600061244486828701612114565b935050602061245586828701612114565b92505060406124668682870161214a565b9150509250925092565b600060208284031215612486576124856120c1565b5b600061249484828501612114565b91505092915050565b600060ff82169050919050565b6124b38161249d565b82525050565b60006020820190506124ce60008301846124aa565b92915050565b6000602082840312156124ea576124e96120c1565b5b60006124f88482850161214a565b91505092915050565b60008060408385031215612518576125176120c1565b5b600061252685828601612114565b925050602061253785828601612114565b9150509250929050565b7f4e487b7100000000000000000000000000000000000000000000000000000000600052602260045260246000fd5b6000600282049050600182168061258857607f821691505b60208210810361259b5761259a612541565b5b50919050565b7f496e73756666696369656e742062616c616e6365000000000000000000000000600082015250565b60006125d7601483612010565b91506125e2826125a1565b602082019050919050565b60006020820190508181036000830152612606816125ca565b9050919050565b7f4e487b7100000000000000000000000000000000000000000000000000000000600052601160045260246000fd5b60008160011c9050919050565b6000808291508390505b60018511156126935780860481111561266f5761266e61260d565b5b600185161561267e5780820291505b808102905061268c8561263c565b9450612653565b94509492505050565b6000826126ac5760019050612768565b816126ba5760009050612768565b81600181146126d057600281146126da57612709565b6001915050612768565b60ff8411156126ec576126eb61260d565b5b8360020a9150848211156127035761270261260d565b5b50612768565b5060208310610133831016604e8410600b841016171561273e5782820a9050838111156127395761273861260d565b5b612768565b61274b8484846001612649565b925090508184048111156127625761276161260d565b5b81810290505b9392505050565b600061277a82612129565b91506127858361249d565b92506127b27fffffffffffffffffffffffffffffffffffffffffffffffffffffffffffffffff848461269c565b905092915050565b60006127c582612129565b91506127d083612129565b92508282026127de81612129565b915082820484148315176127f5576127f461260d565b5b5092915050565b7f57616c6c6574204475726174696f6e206c696d6974206861732072656163686560008201527f6400000000000000000000000000000000000000000000000000000000000000602082015250565b6000612858602183612010565b9150612863826127fc565b604082019050919050565b600060208201905081810360008301526128878161284b565b9050919050565b7f4e487b7100000000000000000000000000000000000000000000000000000000600052603260045260246000fd5b60006128c882612129565b91506128d383612129565b92508282019050808211156128eb576128ea61260d565b5b92915050565b60006128fc82612129565b91507fffffffffffffffffffffffffffffffffffffffffffffffffffffffffffffffff820361292e5761292d61260d565b5b600182019050919050565b600061294482612129565b915061294f83612129565b92508282039050818111156129675761296661260d565b5b92915050565b7f576174636820616e64204561726e2052657761726420546f6b656e732066756c60008201527f6c79206d696e74656420696e2074686520736974650000000000000000000000602082015250565b60006129c9603583612010565b91506129d48261296d565b604082019050919050565b600060208201905081810360008301526129f8816129bc565b9050919050565b7f4e487b7100000000000000000000000000000000000000000000000000000000600052601260045260246000fd5b6000612a3982612129565b9150612a4483612129565b925082612a5457612a536129ff565b5b828204905092915050565b7f45524332304361707065643a2063617020657863656564656400000000000000600082015250565b6000612a95601983612010565b9150612aa082612a5f565b602082019050919050565b60006020820190508181036000830152612ac481612a88565b9050919050565b7f45524332303a2064656372656173656420616c6c6f77616e63652062656c6f7760008201527f207a65726f000000000000000000000000000000000000000000000000000000602082015250565b6000612b27602583612010565b9150612b3282612acb565b604082019050919050565b60006020820190508181036000830152612b5681612b1a565b9050919050565b7f4f776e61626c653a206e6577206f776e657220697320746865207a65726f206160008201527f6464726573730000000000000000000000000000000000000000000000000000602082015250565b6000612bb9602683612010565b9150612bc482612b5d565b604082019050919050565b60006020820190508181036000830152612be881612bac565b9050919050565b7f45524332303a20617070726f76652066726f6d20746865207a65726f2061646460008201527f7265737300000000000000000000000000000000000000000000000000000000602082015250565b6000612c4b602483612010565b9150612c5682612bef565b604082019050919050565b60006020820190508181036000830152612c7a81612c3e565b9050919050565b7f45524332303a20617070726f766520746f20746865207a65726f20616464726560008201527f7373000000000000000000000000000000000000000000000000000000000000602082015250565b6000612cdd602283612010565b9150612ce882612c81565b604082019050919050565b60006020820190508181036000830152612d0c81612cd0565b9050919050565b7f4f776e61626c653a2063616c6c6572206973206e6f7420746865206f776e6572600082015250565b6000612d49602083612010565b9150612d5482612d13565b602082019050919050565b60006020820190508181036000830152612d7881612d3c565b9050919050565b7f45524332303a207472616e736665722066726f6d20746865207a65726f20616460008201527f6472657373000000000000000000000000000000000000000000000000000000602082015250565b6000612ddb602583612010565b9150612de682612d7f565b604082019050919050565b60006020820190508181036000830152612e0a81612dce565b9050919050565b7f45524332303a207472616e7366657220746f20746865207a65726f206164647260008201527f6573730000000000000000000000000000000000000000000000000000000000602082015250565b6000612e6d602383612010565b9150612e7882612e11565b604082019050919050565b60006020820190508181036000830152612e9c81612e60565b9050919050565b7f45524332303a207472616e7366657220616d6f756e742065786365656473206260008201527f616c616e63650000000000000000000000000000000000000000000000000000602082015250565b6000612eff602683612010565b9150612f0a82612ea3565b604082019050919050565b60006020820190508181036000830152612f2e81612ef2565b9050919050565b7f48616c76696e67206f6363757273206f6e6c792061667465722032363637333160008201527f35207365636f6e6473206f662077617463682074696d65000000000000000000602082015250565b6000612f91603783612010565b9150612f9c82612f35565b604082019050919050565b60006020820190508181036000830152612fc081612f84565b9050919050565b7f546f74616c2068616c76696e67206c696d697420726561636865640000000000600082015250565b6000612ffd601b83612010565b915061300882612fc7565b602082019050919050565b6000602082019050818103600083015261302c81612ff0565b9050919050565b7f45524332303a206d696e7420746f20746865207a65726f206164647265737300600082015250565b6000613069601f83612010565b915061307482613033565b602082019050919050565b600060208201905081810360008301526130988161305c565b9050919050565b7f45524332303a20696e73756666696369656e7420616c6c6f77616e6365000000600082015250565b60006130d5601d83612010565b91506130e08261309f565b602082019050919050565b60006020820190508181036000830152613104816130c8565b9050919050565b7f45524332303a206275726e2066726f6d20746865207a65726f2061646472657360008201527f7300000000000000000000000000000000000000000000000000000000000000602082015250565b6000613167602183612010565b91506131728261310b565b604082019050919050565b600060208201905081810360008301526131968161315a565b9050919050565b7f45524332303a206275726e20616d6f756e7420657863656564732062616c616e60008201527f6365000000000000000000000000000000000000000000000000000000000000602082015250565b60006131f9602283612010565b91506132048261319d565b604082019050919050565b60006020820190508181036000830152613228816131ec565b905091905056fea264697066735822122086d9ccd0d888d4c79e0f477607904697d9f3b619a85b765ac3ae40a567fcc38764736f6c63430008130033",
  "linkReferences": {},
  "deployedLinkReferences": {}
}